:03000000020800F3
:0C080000787FE4F6D8FD758145020847BA
:100B0900C0F9A4B0999282F880908883C6A1868E94
:100AF300014200014100014400014300014500019E
:050B03003B0C01402243
:03000300020A6F7F
:100A6F00C0E0C0D075D000C006C007C2AF0545AF0B
:100A7F0045EF3395E0FEC3EF9402EE64809480401F
:0F0A8F0003754500D2AFD007D006D0D0D0E032EB
:03001300020908D7
:0D090800C0E0C083C082C0D075D000C00721
:10091500C2AF90FE03E030E04290FE10E0F521A367
:10092500E0F522A3E0F523A3E0F524A3E0F525A354
:10093500E0F526A3E0F527A3E0F528A3E0F529A334
:10094500E0F52AA3E0F52BA3E0F52CA3E0F52D9027
:10095500FE017404F090FE0BE0A3E090FE04740128
:09096500F0852641852744D2AF3C
:0B096E00D007D0D0D082D083D0E03280
:100ADB00C2B47F0A7E00120AC4D2B4C2B5D2AAC273
:080AEB008AD288D2A8D2AF2202
:100A2200120ADB120979E544F47005854143800618
:100A320085413B854440E5456024753E0CE54075A3
:100A4200F00A120A9EF53FE53B75F00A120A9E85EE
:100A5200F03CE53B75F00A120A9EF53D800AE4F58A
:0D0A62003EF53FF53C85433D1209D080B9BB
:1009790090FE007409F0E0F52030E0F490FE1F7459
:1009890088F090FE067403F0A3741CF090FE0474C2
:1009990001F090FE0874AAF090FE017404F090FE34
:1009A900107411F0A37422F0A37433F0A37444F00B
:1009B900A374FFF0A3F0A3F0A3F090FE007408F075
:0609C900E0F52020E0F43F
:0109CF002205
:10088C00752E88752F01753002753103753204850C
:10089C004233753422753533753644753755753892
:1008AC0066753977753A8890FE02E0FF20E4F8907F
:1008BC00FE02E0FF30E3F890FE02E0FF30E2F89039
:1008CC00FE10E52EF0A3E52FF0A3E530F0A3E53103
:1008DC00F0A3E532F0A3E533F0A3E534F0A3E5355E
:1008EC00F0A3E536F0A3E537F0A3E538F0A3E5393E
:0B08FC00F0A3E53AF090FE017401F05B
:0109070022CD
:040AC0007F037E0032
:090AC400D3EF9400EE9400400D04
:060ACD007508F4D508FDD8
:080AD300EF1F70ED1E80EA2206
:1009D00043A0F0E545600BE53C900B0993547FFD87
:1009E0008007E53C900B0993FD8D8053A0BF120A50
:1009F000C043A0F0E53D900B0993F58053A07F1212
:100A00000AC043A0F0E53E93F58053A0EF120AC060
:100A100043A0F0E53F93F58053A0DF120AC043A046
:010A2000F0E5
:010A210022B2
:10080C00020A22E493A3F8E493A34003F68001F2D6
:10081C0008DFF48029E493A3F85407240CC8C333ED
:10082C00C4540F4420C8834004F456800146F6DFBC
:10083C00E4800B0102040810204080900AF3E47E4F
:10084C00019360BCA3FF543F30E509541FFEE493B1
:10085C00A360010ECF54C025E060A840B8E493A378
:10086C00FAE493A3F8E493A3C8C582C8CAC583CAA3
:10087C00F0A3C8C582C8CAC583CADFE9DEE780BE5B
:010B080000EC
:100A9E00C2D530F707B2D563F0FF05F030E70CB2E0
:100AAE00D5F4048463F0FF05F080018430D502F4A0
:020ABE00042210
:00000001FF
