:03000000020800F3
:0C080000787FE4F6D8FD758140020847BF
:100AAE00C0F9A4B0999282F880908883C6A1868EF0
:060ACB00014000013F00A4
:03000300020A3AB4
:100A3A00C0E0C0F0C083C082C0D075D000C000C082
:100A4A0001C002C003C004C005C006C007C2AF058A
:100A5A004012088CD2AFD007D006D005D004D003FC
:100A6A00D002D001D000D0D0D082D083D0F0D0E054
:010A7A003249
:03001300020908D7
:0D090800C0E0C083C082C0D075D000C00721
:10091500C2AF90FE03E030E04290FE10E0F521A367
:10092500E0F522A3E0F523A3E0F524A3E0F525A354
:10093500E0F526A3E0F527A3E0F528A3E0F529A334
:10094500E0F52AA3E0F52BA3E0F52CA3E0F52D9027
:10095500FE017404F090FE0BE0A3E090FE04740128
:06096500F085263FD2AF31
:0B096B00D007D0D0D082D083D0E03283
:100A9600C2B47F0A7E00120A7FD2B4C2B5D2AAC2FD
:080AA6008AD288D2A8D2AF2247
:0D0ABE00C2A2120A961209E312097680FB0B
:1009E30090FE007409F0E0F52030E0F490FE1F74EF
:1009F30088F090FE067403F0A3741CF090FE047458
:100A030001F090FE0874AAF090FE017404F090FEC9
:100A1300107411F0A37422F0A37433F0A37444F0A0
:100A2300A374FFF0A3F0A3F0A3F090FE007404F00E
:060A3300E0F52030E2F4C2
:010A3900229A
:10088C00752E88752F01753002753103753204850C
:10089C004033753422753533753644753755753894
:1008AC0066753977753A8890FE02E0FF20E4F8907F
:1008BC00FE02E0FF30E3F890FE02E0FF30E2F89039
:1008CC00FE10E52EF0A3E52FF0A3E530F0A3E53103
:1008DC00F0A3E532F0A3E533F0A3E534F0A3E5355E
:1008EC00F0A3E536F0A3E537F0A3E538F0A3E5393E
:0B08FC00F0A3E53AF090FE017410F04C
:0109070022CD
:040A7B007F057E0075
:090A7F00D3EF9400EE9400400D49
:060A88007508F4D508FD1D
:080A8E00EF1F70ED1E80EA224B
:1009760043A0F0E54075F00A8485F03BE54075F04C
:100986006484E5F075F00A84F53CE53F75F00A8469
:1009960085F03DE53F75F06484E5F075F00A84F571
:1009A6003EE53B900AAE93F58053A0BF120A7B4307
:1009B600A0F0E53C93F58053A07F120A7B43A0F09C
:1009C600E53D93F58053A0EF120A7B43A0F0E53E88
:0D09D60093F58053A0DF120A7B43A0F022AE
:10080C00020ABEE493A3F8E493A34003F68001F23A
:10081C0008DFF48029E493A3F85407240CC8C333ED
:10082C00C4540F4420C8834004F456800146F6DFBC
:10083C00E4800B0102040810204080900ACBE47E77
:10084C00019360BCA3FF543F30E509541FFEE493B1
:10085C00A360010ECF54C025E060A840B8E493A378
:10086C00FAE493A3F8E493A3C8C582C8CAC583CAA3
:10087C00F0A3C8C582C8CAC583CADFE9DEE780BE5B
:010AD1000024
:00000001FF
