:0300000002091CD6
:0C091C00787FE4F6D8FD7581480209637D
:100BC400C0F9A4B0999282F880908883C6A1868ED9
:090BD400014000013F0001410055
:100B9C00AD071FED600FE4FEEEC3940D74809480DE
:050BAC0050EE0E80F385
:010BB1002221
:03000300020800F0
:10080000C0E0C083C082C0D075D000C000C004C0AA
:0508100005C006C00751
:10081500750A00C2AA7F0F120B9C309705D2AA0257
:1008250009092097077F01120B9C80F6E4FCECC3B5
:100835009404748094805065750900C3E509940893
:100845007480948050543097077F01120B9C80F67A
:100855002097077F01120B9C80F63097177F0112B6
:100865000B9C050AC3E50A941E7480948040EBD264
:10087500AA02090974422CF8C000E6C313D000F699
:10088500C3E50A940874809480400874422CF8E605
:100895004480F6750A00050980A10C8091E545F4B0
:1008A50065446004D2AA805CE544120B4308F7074F
:1008B50009010908FC1508D41908ED4008F2430898
:1008C500E84408D94508DE4608E3470000090475F1
:1008D5004100802B754101802675410280217541BB
:1008E50003801C754104801775410580127541060A
:1008F500800D75410780087541088003754109859C
:040905004140D2AAF1
:10090900D007D006D005D004D000D0D0D082D08373
:03091900D0E032F9
:03001300020A24BA
:0D0A2400C0E0C083C082C0D075D000C00704
:100A3100C2AF90FE03E030E04290FE10E0F521A34A
:100A4100E0F522A3E0F523A3E0F524A3E0F525A337
:100A5100E0F526A3E0F527A3E0F528A3E0F529A317
:100A6100E0F52AA3E0F52BA3E0F52CA3E0F52D900A
:100A7100FE017404F090FE0BE0A3E090FE0474010B
:060A8100F085263FD2AF14
:0B0A8700D007D0D0D082D083D0E03266
:100B8400C2B47F0A7E00120B6DD2B4C2B5D2AAC21F
:080B94008AD288D2A8D2AF2258
:100BB200120B84120AEC1209A87FD07E07120B6D69
:020BC20080F4BD
:100AEC0090FE007409F0E0F52030E0F490FE1F74E5
:100AFC0088F090FE067403F0A3741CF090FE04744E
:100B0C0001F090FE0874AAF090FE017404F090FEBF
:100B1C00107411F0A37422F0A37433F0A37444F096
:100B2C00A374FFF0A3F0A3F0A3F090FE007408F000
:060B3C00E0F52020E0F4CA
:010B42002290
:1009A800752E88752F0175300275310375320485EF
:1009B80040337534FF75353375364475375575389A
:1009C80066753977753A8890FE02E0FF20E4F89062
:1009D800FE02E0FF30E3F890FE02E0FF30E2F8901C
:1009E800FE10E52EF0A3E52FF0A3E530F0A3E531E6
:1009F800F0A3E532F0A3E533F0A3E534F0A3E53541
:100A0800F0A3E536F0A3E537F0A3E538F0A3E53920
:0B0A1800F0A3E53AF090FE017401F03D
:010A230022B0
:040B69007F057E0086
:090B6D00D3EF9400EE9400400D5A
:060B76007508F4D508FD2E
:080B7C00EF1F70ED1E80EA225C
:100A920043A0F0E53F75F00A84AFF08F3BE53F7568
:100AA200F06484E5F075F00A84F53C8F3DF53EEF85
:100AB200900BC493F58053A0BF120B6943A0F0E5DD
:100AC2003C93F58053A07F120B6943A0F0E53D9360
:100AD200F58053A0EF120B6943A0F0E53E93F58039
:0A0AE20053A0DF120B6943A0F022BD
:10092800020BB2E493A3F8E493A34003F68001F228
:1009380008DFF48029E493A3F85407240CC8C333D0
:10094800C4540F4420C8834004F456800146F6DF9F
:10095800E4800B0102040810204080900BD4E47E50
:10096800019360BCA3FF543F30E509541FFEE49394
:10097800A360010ECF54C025E060A840B8E493A35B
:10098800FAE493A3F8E493A3C8C582C8CAC583CA86
:10099800F0A3C8C582C8CAC583CADFE9DEE780BE3E
:010BDD000017
:100B4300D083D082F8E4937012740193700DA3A341
:100B530093F8740193F5828883E473740293686055
:060B6300EFA3A3A380DF55
:00000001FF
