:03000000020A5E93
:0C0A5E00787FE4F6D8FD758140020AA5FF
:090DF600014000013F00013E0034
:03000300020C8864
:100C8800C0E0C0F0C083C082C0D075D000C000C032
:100C980001C002C003C004C005C006C007C2AF053A
:100CA80040120AEAD2AFD007D006D005D004D0034C
:100CB800D002D001D000D0D0D082D083D0F0D0E004
:010CC80032F9
:03001300020B6677
:0D0B6600C0E0C083C082C0D075D000C007C1
:100B7300C2AF90FE03E030E04290FE10E0F524A304
:100B8300E0F525A3E0F526A3E0F527A3E0F528A3E8
:100B9300E0F529A3E0F52AA3E0F52BA3E0F52CA3C8
:100BA300E0F52DA3E0F52EA3E0F52FA3E0F53090BB
:100BB300FE017404F090FE0BE0A3E090FE047401C8
:060BC300F085293FD2AFCE
:0B0BC900D007D0D0D082D083D0E03223
:080E0000438901D2A9D28C2222
:03000B00020D8B58
:040D8B00C0E0C0D034
:100D8F00758CF8758A300523E52370020522B42C83
:0E0D9F000DE522B40108752200752300D2086C
:050DAD00D0D0D0E032BF
:100DB200C2B47F0A7E00120DCAD2B4C2B5D2AAC290
:080DC2008AD288D2A8D2AF2228
:100BD400750C04750DD2120DB2120E00120C317F79
:100BE400F47E01120DCA300838C208120CC9AB07D2
:100BF400AA06AD03AC02EC12090BE4FBFA79C8783F
:100C040040120800120944AA06AB077C007D641256
:100C140009C58F40AE02AF037C007D641209C58D07
:0D0C24003E120AEA7FC87E00120DCA80B998
:100C310090FE007409F0E0F52030E0F490FE1F749E
:100C410088F090FE067403F0A3741CF090FE047407
:100C510001F090FE0874AAF090FE017404F090FE79
:100C6100107411F0A37422F0A37433F0A37444F050
:100C7100A374FFF0A3F0A3F0A3F090FE007408F0BA
:060C8100E0F52020E0F484
:010C8700224A
:100AEA00753188753201753302753403753504859D
:100AFA004036853E37753833753944753A55753BF6
:100B0A0066753C77753D8890FE02E0FF20E4F89018
:100B1A00FE02E0FF30E3F890FE02E0FF30E2F890D8
:100B2A00FE10E531F0A3E532F0A3E533F0A3E53496
:100B3A00F0A3E535F0A3E536F0A3E537F0A3E538F1
:100B4A00F0A3E539F0A3E53AF0A3E53BF0A3E53CD1
:0B0B5A00F0A3E53DF090FE017401F0F7
:010B6500226D
:090DCA00D3EF9400EE9400400DFB
:060DD300750EF4D50EFDC3
:080DD900EF1F70ED1E80EA22FD
:100D6300C209D2977F05120E08C2977FC8120E08D8
:100D73007FC8120E08D2977F32120E08A2979209EB
:070D83007F19120E08A209FE
:010D8A002246
:100D3500E4F50FF510750F08D3E50F940074809452
:100D4500804018C297E51013F510D29730970343EA
:0D0D550010807F19120E08150F80DDAF1001
:010D6200226E
:020D05008F0F4E
:100D0700E4F510751008D3E51094007480948040C2
:100D170018C297E50F1392977F19120E08D297E51D
:0E0D27000FC313F50F151080DD7F19020E08A3
:100CC900E4F50EFFFEFDFC120D637FCC120D057FCE
:100CD90044120D057F0A120DE1120D637FCC120D2E
:100CE900057FBE120D05120D358F0E120D35EF7FE2
:0B0CF90000FEEF250EFDE43EFEAF05FF
:010D040022CC
:030E0800DFFE22E8
:100DE100AE07AF061EEF600C7FF5120E087FF512FD
:050DF1000E0880EE2257
:10080000EC4D6011E8497017ED33EC3304600DE4F2
:10081000FCFFFEFD22E933E8330470F80209B01250
:10082000097B58046009E4CC248150062850090251
:1008300009BA2840030209B7C0E0EB4A7044B98006
:1008400006D0E0FB0209A6EF4E701CBD8008EBFF4E
:10085000EAFEE9FD80EBE98DF0A4FEE5F00208E98F
:10086000E9CDF9EAFEEBFFEF89F0A4FCE5F0CE89D3
:10087000F0A42EFFE435F0CD89F0A42DFEE435F090
:100880008067EF4E7005BD80D780C3EF8BF0A4ACBE
:10089000F0EE8BF0A42CFCE435F0F8EF8AF0A42CF9
:1008A000E5F038FCE433CB8DF0A42CFCE5F03BF80C
:1008B000EE8AF0A42CFCE5F038F8E433CF89F0A4FC
:1008C0002CFCE5F038CF3400CE89F0A42FFFE5F002
:1008D0003EFEE433C98DF0A42EFEE5F039CD8AF05A
:1008E000A42FFFE5F03EFEE43DFD33D0E0FB5007D2
:1008F0000BBB000F0209BAEC2CFCEF33FFEE33FE0A
:06090000ED33FD02099237
:1009060075F020800E75F010800575F0087D007E6C
:10091600007F003392D530D5031209FBEC3340102B
:10092600EF33FFEE33FEED33FDEC33FCD5F0ED2275
:0E093600E5F0247EA2D513CC92E7CDCEFF22B1
:10094400EDD2E7CD33EC3392D524814006E4FFFEAB
:10095400FDFC22FCE4CFCECDCC24E0501174FF800A
:10096400EDC3CC13CCCD13CDCE13CECF13CF0470A7
:07097400F030D5DE0209FBA3
:10097B00E9D2E7C933E833F892D5EDD2E7CD33ECC2
:07098B0033FC5002B2D5223B
:10099200EC30E7100FBF000C0EBE00080DBD0004C6
:1009A2000BEB6014A2D5EB13FCED92E7FD2274FF72
:1009B200FCFDFEFF22E480F8A2D574FF13FC7D80CB
:0309C200E480EFDF
:100A6A00020BD4E493A3F8E493A34003F68001F2C3
:100A7A0008DFF48029E493A3F85407240CC8C3338D
:100A8A00C4540F4420C8834004F456800146F6DF5C
:100A9A00E4800B0102040810204080900DF6E47EE9
:100AAA00019360BCA3FF543F30E509541FFEE49351
:100ABA00A360010ECF54C025E060A840B8E493A318
:100ACA00FAE493A3F8E493A3C8C582C8CAC583CA43
:100ADA00F0A3C8C582C8CAC583CADFE9DEE780BEFB
:010DFF0000F3
:1009C500C2D5EC30E709B2D5E4C39DFDE49CFCEE4D
:1009D50030E715B2D5E4C39FFFE49EFE120A09C3B2
:1009E500E49DFDE49CFC8003120A0930D507C3E4AD
:0609F5009FFFE49EFE22BC
:0E09FB00C3E49FFFE49EFEE49DFDE49CFC220D
:100A0900BC000BBE0029EF8DF084FFADF022E4CCD1
:100A1900F875F008EF2FFFEE33FEEC33FCEE9DEC9A
:100A2900984005FCEE9DFE0FD5F0E9E4CEFD22EDE0
:100A3900F8F5F0EE8420D21CFEADF075F008EF2F2A
:100A4900FFED33FD4007985006D5F0F222C398FD1B
:050A59000FD5F0EA22B8
:00000001FF
